{
  "_format": "hh-sol-artifact-1",
  "contractName": "Evoting",
  "sourceName": "contracts/Evoting.sol",
  "abi": [
    {
      "inputs": [
        {
          "internalType": "address",
          "name": "_verifierAddress",
          "type": "address"
        }
      ],
      "stateMutability": "nonpayable",
      "type": "constructor"
    },
    {
      "anonymous": false,
      "inputs": [
        {
          "indexed": false,
          "internalType": "uint256",
          "name": "oldRoot",
          "type": "uint256"
        },
        {
          "indexed": false,
          "internalType": "uint256",
          "name": "newRoot",
          "type": "uint256"
        }
      ],
      "name": "MerkleRootUpdated",
      "type": "event"
    },
    {
      "anonymous": false,
      "inputs": [
        {
          "indexed": true,
          "internalType": "uint256",
          "name": "candidateId",
          "type": "uint256"
        },
        {
          "indexed": true,
          "internalType": "uint256",
          "name": "nullifierHash",
          "type": "uint256"
        }
      ],
      "name": "VoteCast",
      "type": "event"
    },
    {
      "anonymous": false,
      "inputs": [
        {
          "indexed": false,
          "internalType": "bool",
          "name": "isActive",
          "type": "bool"
        }
      ],
      "name": "VotingStatusToggled",
      "type": "event"
    },
    {
      "inputs": [],
      "name": "admin",
      "outputs": [
        {
          "internalType": "address",
          "name": "",
          "type": "address"
        }
      ],
      "stateMutability": "view",
      "type": "function"
    },
    {
      "inputs": [
        {
          "internalType": "uint256",
          "name": "",
          "type": "uint256"
        }
      ],
      "name": "candidateVotes",
      "outputs": [
        {
          "internalType": "uint256",
          "name": "",
          "type": "uint256"
        }
      ],
      "stateMutability": "view",
      "type": "function"
    },
    {
      "inputs": [
        {
          "internalType": "uint256[2]",
          "name": "a",
          "type": "uint256[2]"
        },
        {
          "internalType": "uint256[2][2]",
          "name": "b",
          "type": "uint256[2][2]"
        },
        {
          "internalType": "uint256[2]",
          "name": "c",
          "type": "uint256[2]"
        },
        {
          "internalType": "uint256[1]",
          "name": "input",
          "type": "uint256[1]"
        },
        {
          "internalType": "uint256",
          "name": "candidateId",
          "type": "uint256"
        },
        {
          "internalType": "uint256",
          "name": "nullifierHash",
          "type": "uint256"
        }
      ],
      "name": "castVote",
      "outputs": [],
      "stateMutability": "nonpayable",
      "type": "function"
    },
    {
      "inputs": [],
      "name": "currentMerkleRoot",
      "outputs": [
        {
          "internalType": "uint256",
          "name": "",
          "type": "uint256"
        }
      ],
      "stateMutability": "view",
      "type": "function"
    },
    {
      "inputs": [],
      "name": "isVotingActive",
      "outputs": [
        {
          "internalType": "bool",
          "name": "",
          "type": "bool"
        }
      ],
      "stateMutability": "view",
      "type": "function"
    },
    {
      "inputs": [
        {
          "internalType": "uint256",
          "name": "_root",
          "type": "uint256"
        }
      ],
      "name": "setMerkleRoot",
      "outputs": [],
      "stateMutability": "nonpayable",
      "type": "function"
    },
    {
      "inputs": [],
      "name": "toggleVotingStatus",
      "outputs": [],
      "stateMutability": "nonpayable",
      "type": "function"
    },
    {
      "inputs": [
        {
          "internalType": "uint256",
          "name": "",
          "type": "uint256"
        }
      ],
      "name": "usedNullifiers",
      "outputs": [
        {
          "internalType": "bool",
          "name": "",
          "type": "bool"
        }
      ],
      "stateMutability": "view",
      "type": "function"
    },
    {
      "inputs": [],
      "name": "verifier",
      "outputs": [
        {
          "internalType": "contract Verifier",
          "name": "",
          "type": "address"
        }
      ],
      "stateMutability": "view",
      "type": "function"
    }
  ],
  "bytecode": "0x608060405234801561001057600080fd5b5060405161087e38038061087e83398101604081905261002f916100d1565b6001600160a01b03811661009a5760405162461bcd60e51b815260206004820152602860248201527f45766f74696e673a20566572696669657220616464726573732063616e6e6f74604482015267206265207a65726f60c01b606482015260840160405180910390fd5b600080546001600160a01b03191633179055600180546001600160a81b0319166001600160a01b0392909216919091179055610101565b6000602082840312156100e357600080fd5b81516001600160a01b03811681146100fa57600080fd5b9392505050565b61076e806101106000396000f3fe608060405234801561001057600080fd5b50600436106100935760003560e01c80639ea97190116100665780639ea9719014610109578063aad2406114610120578063dabeab7e14610143578063f49e323e14610156578063f851a4401461017657600080fd5b80632b7ac3f31461009857806347cf6f76146100c85780635d5e8875146100ec57806388006e8d14610101575b600080fd5b6001546100ab906001600160a01b031681565b6040516001600160a01b0390911681526020015b60405180910390f35b6001546100dc90600160a01b900460ff1681565b60405190151581526020016100bf565b6100ff6100fa366004610577565b610189565b005b6100ff6101fd565b61011260025481565b6040519081526020016100bf565b6100dc61012e366004610577565b60046020526000908152604090205460ff1681565b6100ff6101513660046105a7565b61028d565b610112610164366004610577565b60036020526000908152604090205481565b6000546100ab906001600160a01b031681565b6000546001600160a01b031633146101bc5760405162461bcd60e51b81526004016101b390610620565b60405180910390fd5b60025460408051918252602082018390527f3d5a9dc566f67ff4ad358cf0250c6418e6ca5f0539ed838073f957250bf5b60e910160405180910390a1600255565b6000546001600160a01b031633146102275760405162461bcd60e51b81526004016101b390610620565b6001805460ff600160a01b808304821615810260ff60a01b1990931692909217928390556040517f232b693ef271cee7b5a1e53dc334f372821b215a701ff688ddec3b647e52389e936102839390049091161515815260200190565b60405180910390a1565b600154600160a01b900460ff166102f95760405162461bcd60e51b815260206004820152602a60248201527f45766f74696e673a20566f74696e672077696e646f772069732063757272656e6044820152691d1b1e4818db1bdcd95960b21b60648201526084016101b3565b6002548335146103715760405162461bcd60e51b815260206004820152603e60248201527f45766f74696e673a2050726f6f662069732067656e65726174656420666f722060448201527f61207374616c65206f7220696e76616c6964204d65726b6c6520526f6f74000060648201526084016101b3565b60008181526004602052604090205460ff16156103ec5760405162461bcd60e51b815260206004820152603360248201527f45766f74696e673a205468697320766f7465206e756c6c69666965722068617360448201527208185b1c9958591e481899595b881cdc195b9d606a1b60648201526084016101b3565b600060405180604001604052808560006001811061040c5761040c61066a565b60209081029190910135825201839052600154604051637ae4eb4f60e11b81529192506000916001600160a01b039091169063f5c9d69e90610458908b908b908b908890600401610680565b602060405180830381865afa158015610475573d6000803e3d6000fd5b505050506040513d601f19601f8201168201806040525081019061049991906106ee565b9050806105015760405162461bcd60e51b815260206004820152603060248201527f45766f74696e673a20496e76616c6964207a65726f2d6b6e6f776c656467652060448201526f36b2b6b132b939b434b810383937b7b360811b60648201526084016101b3565b6000838152600460209081526040808320805460ff191660019081179091558784526003909252822080549192909161053b908490610717565b9091555050604051839085907fc31875ef3ed5138b71a0c1da7e494bc4d2ba4f567084ea481ec9c45f3a93948b90600090a35050505050505050565b60006020828403121561058957600080fd5b5035919050565b80604081018310156105a157600080fd5b92915050565b60008060008060008061016087890312156105c157600080fd5b6105cb8888610590565b955060c08701888111156105de57600080fd5b6040880195506105ee8982610590565b94505061012087018881111561060357600080fd5b959894975092956101008101953594610140909101359350915050565b6020808252602a908201527f45766f74696e673a204f6e6c792061646d696e2063616e2063616c6c207468696040820152693990333ab731ba34b7b760b11b606082015260800190565b634e487b7160e01b600052603260045260246000fd5b61014081016040808784378083018660005b60028110156106af57838284379183019190830190600101610692565b505050808560c08501375061010082018360005b60028110156106e25781518352602092830192909101906001016106c3565b50505095945050505050565b60006020828403121561070057600080fd5b8151801515811461071057600080fd5b9392505050565b808201808211156105a157634e487b7160e01b600052601160045260246000fdfea2646970667358221220e4a45209e75b20a80aa999146181da62261d5cf3da84f16771fddc84f0d9d6ef64736f6c63430008180033",
  "linkReferences": {},
  "deployedLinkReferences": {}
}